{
  "contractName": "DIDRegistry",
  "abi": [
    {
      "anonymous": false,
      "inputs": [
        {
          "indexed": true,
          "internalType": "address",
          "name": "identity",
          "type": "address"
        },
        {
          "indexed": true,
          "internalType": "bytes32",
          "name": "name",
          "type": "bytes32"
        },
        {
          "indexed": false,
          "internalType": "bytes",
          "name": "value",
          "type": "bytes"
        },
        {
          "indexed": false,
          "internalType": "uint256",
          "name": "validTo",
          "type": "uint256"
        },
        {
          "indexed": false,
          "internalType": "uint256",
          "name": "previousChange",
          "type": "uint256"
        }
      ],
      "name": "DIDAttributeChanged",
      "type": "event"
    },
    {
      "inputs": [
        {
          "internalType": "bytes32",
          "name": "_name",
          "type": "bytes32"
        },
        {
          "internalType": "bytes",
          "name": "_value",
          "type": "bytes"
        },
        {
          "internalType": "uint256",
          "name": "_validTo",
          "type": "uint256"
        }
      ],
      "name": "setAttribute",
      "outputs": [],
      "stateMutability": "nonpayable",
      "type": "function"
    },
    {
      "inputs": [
        {
          "internalType": "address",
          "name": "_identity",
          "type": "address"
        },
        {
          "internalType": "bytes32",
          "name": "_name",
          "type": "bytes32"
        }
      ],
      "name": "getAttribute",
      "outputs": [
        {
          "internalType": "bytes",
          "name": "value",
          "type": "bytes"
        },
        {
          "internalType": "uint256",
          "name": "validTo",
          "type": "uint256"
        },
        {
          "internalType": "uint256",
          "name": "previousChange",
          "type": "uint256"
        }
      ],
      "stateMutability": "view",
      "type": "function",
      "constant": true
    }
  ],
  "bytecode": "0x608060405234801561001057600080fd5b506106f1806100206000396000f3fe608060405234801561001057600080fd5b50600436106100365760003560e01c8063163f66911461003b578063d862913f1461006d575b600080fd5b610055600480360381019061005091906103a7565b610089565b60405161006493929190610492565b60405180910390f35b610087600480360381019061008291906103e3565b610186565b005b606060008060008060008773ffffffffffffffffffffffffffffffffffffffff1673ffffffffffffffffffffffffffffffffffffffff168152602001908152602001600020600086815260200190815260200160002090508060000180546100f0906105d5565b80601f016020809104026020016040519081016040528092919081815260200182805461011c906105d5565b80156101695780601f1061013e57610100808354040283529160200191610169565b820191906000526020600020905b81548152906001019060200180831161014c57829003601f168201915b505050505093508060010154925080600201549150509250925092565b60008060003373ffffffffffffffffffffffffffffffffffffffff1673ffffffffffffffffffffffffffffffffffffffff16815260200190815260200160002060008581526020019081526020016000209050828160000190805190602001906101f192919061025d565b50818160010181905550438160020181905550833373ffffffffffffffffffffffffffffffffffffffff167f18ab6b2ae3d64306c00ce663125f2bd680e441a098de1635bd7ad8b0d44965e485854360405161024f93929190610492565b60405180910390a350505050565b828054610269906105d5565b90600052602060002090601f01602090048101928261028b57600085556102d2565b82601f106102a457805160ff19168380011785556102d2565b828001600101855582156102d2579182015b828111156102d15782518255916020019190600101906102b6565b5b5090506102df91906102e3565b5090565b5b808211156102fc5760008160009055506001016102e4565b5090565b600061031361030e84610501565b6104d0565b90508281526020810184848401111561032b57600080fd5b610336848285610593565b509392505050565b60008135905061034d81610676565b92915050565b6000813590506103628161068d565b92915050565b600082601f83011261037957600080fd5b8135610389848260208601610300565b91505092915050565b6000813590506103a1816106a4565b92915050565b600080604083850312156103ba57600080fd5b60006103c88582860161033e565b92505060206103d985828601610353565b9150509250929050565b6000806000606084860312156103f857600080fd5b600061040686828701610353565b935050602084013567ffffffffffffffff81111561042357600080fd5b61042f86828701610368565b925050604061044086828701610392565b9150509250925092565b600061045582610531565b61045f818561053c565b935061046f8185602086016105a2565b61047881610665565b840191505092915050565b61048c81610589565b82525050565b600060608201905081810360008301526104ac818661044a565b90506104bb6020830185610483565b6104c86040830184610483565b949350505050565b6000604051905081810181811067ffffffffffffffff821117156104f7576104f6610636565b5b8060405250919050565b600067ffffffffffffffff82111561051c5761051b610636565b5b601f19601f8301169050602081019050919050565b600081519050919050565b600082825260208201905092915050565b600061055882610569565b9050919050565b6000819050919050565b600073ffffffffffffffffffffffffffffffffffffffff82169050919050565b6000819050919050565b82818337600083830152505050565b60005b838110156105c05780820151818401526020810190506105a5565b838111156105cf576000848401525b50505050565b600060028204905060018216806105ed57607f821691505b6020821081141561060157610600610607565b5b50919050565b7f4e487b7100000000000000000000000000000000000000000000000000000000600052602260045260246000fd5b7f4e487b7100000000000000000000000000000000000000000000000000000000600052604160045260246000fd5b6000601f19601f8301169050919050565b61067f8161054d565b811461068a57600080fd5b50565b6106968161055f565b81146106a157600080fd5b50565b6106ad81610589565b81146106b857600080fd5b5056fea2646970667358221220b76906bc896e519563642cb439e7dfdaba9e1318f3022a27f76266a40cf26f8064736f6c63430008000033",
  "immutableReferences": {},
  "source": "pragma solidity ^0.8.0;\n\ncontract DIDRegistry {\n    event DIDAttributeChanged(\n        address indexed identity,\n        bytes32 indexed name,\n        bytes value,\n        uint256 validTo,\n        uint256 previousChange\n    );\n\n    mapping(address => mapping(bytes32 => DIDAttribute)) private data;\n\n    struct DIDAttribute {\n        bytes value;\n        uint256 validTo;\n        uint256 previousChange;\n    }\n\n    function setAttribute(\n        bytes32 _name,\n        bytes memory _value,\n        uint256 _validTo\n    ) public {\n        DIDAttribute storage attr = data[msg.sender][_name];\n        attr.value = _value;\n        attr.validTo = _validTo;\n        attr.previousChange = block.number;\n        emit DIDAttributeChanged(msg.sender, _name, _value, _validTo, block.number);\n    }\n\n    function getAttribute(address _identity, bytes32 _name)\n        public\n        view\n        returns (\n            bytes memory value,\n            uint256 validTo,\n            uint256 previousChange\n        )\n    {\n        DIDAttribute storage attr = data[_identity][_name];\n        value = attr.value;\n        validTo = attr.validTo;\n        previousChange = attr.previousChange;\n    }\n}",
  "sourcePath": "/home/lanacreates/celo-did/contracts/DIDRegistry.sol",
  "compiler": {
    "name": "solc",
    "version": "0.8.0+commit.c7dfd78e.Emscripten.clang"
  },
  "schemaVersion": "3.4.13",
  "updatedAt": "2023-03-27T04:23:59.466Z",
  "networkType": "ethereum",
  "devdoc": {
    "kind": "dev",
    "methods": {},
    "version": 1
  },
  "userdoc": {
    "kind": "user",
    "methods": {},
    "version": 1
  }
}